:100000000C9462000C948A000C948A000C948A0070
:100010000C948A000C948A000C948A000C948A0038
:100020000C948A000C948A000C948A000C948A0028
:100030000C948A000C948A000C948A000C948A0018
:100040000C94AC010C948A000C948A000C948A00E5
:100050000C948A000C948A000C948A000C948A00F8
:100060000C948A000C948A000000000024002700F1
:100070002A0000000000250028002B0000000000DE
:1000800023002600290004040404040404040202DA
:100090000202020203030303030301020408102007
:1000A0004080010204081020010204081020000012
:1000B0000007000201000003040600000000000029
:1000C0000000C60011241FBECFEFD8E0DEBFCDBFB9
:1000D00011E0A0E0B1E0EEE6F4E002C005900D9280
:1000E000A030B107D9F711E0A0E0B1E001C01D9246
:1000F000AC32B107E1F710E0C4ECD0E004C02297C5
:10010000FE010E943102C23CD107C9F70E949B0147
:100110000C9435020C940000089508951F93CF931A
:10012000DF93EC01162F862F61E00E940701812FDB
:1001300061E00E9446010E94F0008A8560E00E9412
:1001400046018AE28EBD0DB407FEFDCF8EB51EBC02
:100150000DB407FEFDCF8EB58A8561E00E94460191
:1001600081E0888382E0898385E08A838AE08B83CB
:1001700084E18C8382E38D8384E68E8388EC8F8395
:1001800018861986DF91CF911F91089580E091E044
:100190006AE00E948E008BE091E06BE00E948E008E
:1001A00086E191E06CE00E948E0081E291E06DE0DA
:1001B00070E00E94DC0008950F931F938C01862F3E
:1001C000F8016083718361E00E940701F80180817A
:1001D00061E00E9446010E94F0001F910F91089576
:1001E0008AE061E00E9446018AE061E00E94070126
:1001F0008CB580618CBD8CB580648CBD8DE061E078
:100200000E9407018BE061E00E9407010895CF93EF
:10021000DF93482F50E0CA0186569F4FFC0134916E
:100220004A575F4FFA018491882369F190E0880F63
:10023000991FFC01E859FF4FA591B491FC01EE58BC
:10024000FF4FC591D491662351F42FB7F8948C9148
:10025000932F909589238C93888189230BC06230DA
:1002600061F42FB7F8948C91932F909589238C93F8
:100270008881832B88832FBF06C09FB7F8948C9109
:10028000832B8C939FBFDF91CF910895482F50E02F
:10029000CA0182559F4FFC012491CA0186569F4F87
:1002A000FC0194914A575F4FFA013491332309F4CA
:1002B00040C0222351F1233071F0243028F4213042
:1002C000A1F0223011F514C02630B1F02730C1F072
:1002D0002430D9F404C0809180008F7703C08091CE
:1002E00080008F7D8093800010C084B58F7702C01E
:1002F00084B58F7D84BD09C08091B0008F7703C025
:100300008091B0008F7D8093B000E32FF0E0EE0F7E
:10031000FF1FEE58FF4FA591B4912FB7F8946623B5
:1003200021F48C919095892302C08C91892B8C9318
:100330002FBF08950895CF93DF930E94F4010E9488
:100340009A010E948C00C0E0D0E00E948D002097AE
:10035000E1F30E940000F9CF1F920F920FB60F92A7
:1003600011242F933F938F939F93AF93BF938091CB
:10037000270190912801A0912901B0912A01309183
:100380002B010196A11DB11D232F2D5F2D3720F0CC
:100390002D570196A11DB11D20932B01809327019C
:1003A00090932801A0932901B0932A018091230101
:1003B00090912401A0912501B09126010196A11DE3
:1003C000B11D8093230190932401A0932501B09344
:1003D0002601BF91AF919F918F913F912F910F90E7
:1003E0000FBE0F901F901895789484B5826084BDDD
:1003F00084B5816084BD85B5826085BD85B5816029
:1004000085BDEEE6F0E0808181608083E1E8F0E088
:100410001082808182608083808181608083E0E8B7
:10042000F0E0808181608083E1EBF0E08081846096
:100430008083E0EBF0E0808181608083EAE7F0E098
:1004400080818460808380818260808380818160FC
:1004500080838081806880831092C1000895EE0FB0
:0E046000FF1F0590F491E02D0994F894FFCF52
:00000001FF
